:020000040800F2
:1000000000280020A5020008CD020008CD0200084B
:10001000CD020008CD020008CD020008CD02000884
:10002000CD020008CD020008CD020008CD02000874
:10003000CD020008CD02000841020008A901000815
:10004000CD020008CD020008CD020008CD02000854
:10005000CD020008CD020008CD020008CD02000844
:10006000CD020008CD020008CD020008CD02000834
:10007000CD020008CD020008CD020008CD02000824
:10008000CD020008CD020008CD020008CD02000814
:10009000CD020008CD020008CD020008CD02000804
:1000A000CD020008CD020008CD020008CD020008F4
:1000B000CD020008CD020008CD020008CD020008E4
:1000C000CD020008CD020008CD020008CD020008D4
:1000D000CD020008CD020008CD020008CD020008C4
:1000E000CD020008CD020008CD020008CD020008B4
:1000F000CD020008CD020008CD020008CD020008A4
:10010000CD020008CD020008CD020008CD02000893
:10011000CD020008CD020008CD020008CD02000883
:10012000CD020008CD020008CD020008CD02000873
:10013000CD020008CD020008CD020008CD02000863
:10014000CD020008CD020008CD020008CD02000853
:1001500080B400AF094B00221A60094B1B68084AA3
:1001600043F007031360064B41F63F725A60044B9D
:1001700000229A6000BFBD4680BC7047140000207A
:1001800010E000E080B400AF054B1B68044A23F088
:1001900007031360034B1B681846BD4680BC7047BD
:1001A00010E000E01400002080B400AF044B1B6896
:1001B0000133034A136000BFBD4680BC704700BFD7
:1001C0001400002080B582B000AF174B9847174B42
:1001D000DB68164A43F0BF6343F40033D360134B2C
:1001E000DB68124A43F4A063D360104B1B6A7B6048
:1001F000FF233B603B681B04DB437A6813407B6052
:100200003B681B0403F470037A6813437B60074A5E
:100210007B681362054B5B68044A43F0805353606C
:10022000034B9847FEE700BF3502000808E000E0F6
:100230005902000880B400AF00BFBD4680BC7047C3
:1002400080B400AF00BFBD4680BC704780B400AF33
:1002500000BFBD4680BC704780B582B000AF0D4B7B
:10026000984700237B6000233B6005E07B680133F7
:100270007B603B6801333B603B68074A9342F5D99A
:10028000064B98470346064A136000BF0837BD4631
:1002900080BD00BF510100088FD003008501000818
:1002A0001800002006480749074A914205D050F837
:1002B000043B41F8043B9142F9D3FFF783BF0000B0
:0E02C000E50200080000002013000020FEE709
:1002D000564D413A464C4153482C204C4D413A46EC
:0502E0004C41534800F1
:1002E500564D413A52414D2C204C4D413A464C41D8
:0302F5005348006B
:04000005080001509E
:00000001FF
